{
  "_format": "hh3-artifact-1",
  "contractName": "StockToken",
  "sourceName": "contracts/StockToken.sol",
  "abi": [
    {
      "inputs": [
        {
          "internalType": "string",
          "name": "name",
          "type": "string"
        },
        {
          "internalType": "string",
          "name": "symbol",
          "type": "string"
        },
        {
          "internalType": "uint8",
          "name": "decimals_",
          "type": "uint8"
        },
        {
          "internalType": "uint256",
          "name": "initialSupply",
          "type": "uint256"
        }
      ],
      "stateMutability": "nonpayable",
      "type": "constructor"
    },
    {
      "inputs": [
        {
          "internalType": "address",
          "name": "spender",
          "type": "address"
        },
        {
          "internalType": "uint256",
          "name": "allowance",
          "type": "uint256"
        },
        {
          "internalType": "uint256",
          "name": "needed",
          "type": "uint256"
        }
      ],
      "name": "ERC20InsufficientAllowance",
      "type": "error"
    },
    {
      "inputs": [
        {
          "internalType": "address",
          "name": "sender",
          "type": "address"
        },
        {
          "internalType": "uint256",
          "name": "balance",
          "type": "uint256"
        },
        {
          "internalType": "uint256",
          "name": "needed",
          "type": "uint256"
        }
      ],
      "name": "ERC20InsufficientBalance",
      "type": "error"
    },
    {
      "inputs": [
        {
          "internalType": "address",
          "name": "approver",
          "type": "address"
        }
      ],
      "name": "ERC20InvalidApprover",
      "type": "error"
    },
    {
      "inputs": [
        {
          "internalType": "address",
          "name": "receiver",
          "type": "address"
        }
      ],
      "name": "ERC20InvalidReceiver",
      "type": "error"
    },
    {
      "inputs": [
        {
          "internalType": "address",
          "name": "sender",
          "type": "address"
        }
      ],
      "name": "ERC20InvalidSender",
      "type": "error"
    },
    {
      "inputs": [
        {
          "internalType": "address",
          "name": "spender",
          "type": "address"
        }
      ],
      "name": "ERC20InvalidSpender",
      "type": "error"
    },
    {
      "inputs": [
        {
          "internalType": "address",
          "name": "owner",
          "type": "address"
        }
      ],
      "name": "OwnableInvalidOwner",
      "type": "error"
    },
    {
      "inputs": [
        {
          "internalType": "address",
          "name": "account",
          "type": "address"
        }
      ],
      "name": "OwnableUnauthorizedAccount",
      "type": "error"
    },
    {
      "anonymous": false,
      "inputs": [
        {
          "indexed": true,
          "internalType": "address",
          "name": "owner",
          "type": "address"
        },
        {
          "indexed": true,
          "internalType": "address",
          "name": "spender",
          "type": "address"
        },
        {
          "indexed": false,
          "internalType": "uint256",
          "name": "value",
          "type": "uint256"
        }
      ],
      "name": "Approval",
      "type": "event"
    },
    {
      "anonymous": false,
      "inputs": [
        {
          "indexed": true,
          "internalType": "address",
          "name": "previousOwner",
          "type": "address"
        },
        {
          "indexed": true,
          "internalType": "address",
          "name": "newOwner",
          "type": "address"
        }
      ],
      "name": "OwnershipTransferred",
      "type": "event"
    },
    {
      "anonymous": false,
      "inputs": [
        {
          "indexed": true,
          "internalType": "address",
          "name": "from",
          "type": "address"
        },
        {
          "indexed": true,
          "internalType": "address",
          "name": "to",
          "type": "address"
        },
        {
          "indexed": false,
          "internalType": "uint256",
          "name": "value",
          "type": "uint256"
        }
      ],
      "name": "Transfer",
      "type": "event"
    },
    {
      "inputs": [
        {
          "internalType": "address",
          "name": "owner",
          "type": "address"
        },
        {
          "internalType": "address",
          "name": "spender",
          "type": "address"
        }
      ],
      "name": "allowance",
      "outputs": [
        {
          "internalType": "uint256",
          "name": "",
          "type": "uint256"
        }
      ],
      "stateMutability": "view",
      "type": "function"
    },
    {
      "inputs": [
        {
          "internalType": "address",
          "name": "spender",
          "type": "address"
        },
        {
          "internalType": "uint256",
          "name": "value",
          "type": "uint256"
        }
      ],
      "name": "approve",
      "outputs": [
        {
          "internalType": "bool",
          "name": "",
          "type": "bool"
        }
      ],
      "stateMutability": "nonpayable",
      "type": "function"
    },
    {
      "inputs": [
        {
          "internalType": "address",
          "name": "account",
          "type": "address"
        }
      ],
      "name": "balanceOf",
      "outputs": [
        {
          "internalType": "uint256",
          "name": "",
          "type": "uint256"
        }
      ],
      "stateMutability": "view",
      "type": "function"
    },
    {
      "inputs": [
        {
          "internalType": "address",
          "name": "from",
          "type": "address"
        },
        {
          "internalType": "uint256",
          "name": "amount",
          "type": "uint256"
        }
      ],
      "name": "burn",
      "outputs": [],
      "stateMutability": "nonpayable",
      "type": "function"
    },
    {
      "inputs": [],
      "name": "decimals",
      "outputs": [
        {
          "internalType": "uint8",
          "name": "",
          "type": "uint8"
        }
      ],
      "stateMutability": "view",
      "type": "function"
    },
    {
      "inputs": [
        {
          "internalType": "address",
          "name": "to",
          "type": "address"
        },
        {
          "internalType": "uint256",
          "name": "amount",
          "type": "uint256"
        }
      ],
      "name": "mint",
      "outputs": [],
      "stateMutability": "nonpayable",
      "type": "function"
    },
    {
      "inputs": [],
      "name": "name",
      "outputs": [
        {
          "internalType": "string",
          "name": "",
          "type": "string"
        }
      ],
      "stateMutability": "view",
      "type": "function"
    },
    {
      "inputs": [],
      "name": "owner",
      "outputs": [
        {
          "internalType": "address",
          "name": "",
          "type": "address"
        }
      ],
      "stateMutability": "view",
      "type": "function"
    },
    {
      "inputs": [],
      "name": "renounceOwnership",
      "outputs": [],
      "stateMutability": "nonpayable",
      "type": "function"
    },
    {
      "inputs": [],
      "name": "symbol",
      "outputs": [
        {
          "internalType": "string",
          "name": "",
          "type": "string"
        }
      ],
      "stateMutability": "view",
      "type": "function"
    },
    {
      "inputs": [],
      "name": "totalSupply",
      "outputs": [
        {
          "internalType": "uint256",
          "name": "",
          "type": "uint256"
        }
      ],
      "stateMutability": "view",
      "type": "function"
    },
    {
      "inputs": [
        {
          "internalType": "address",
          "name": "to",
          "type": "address"
        },
        {
          "internalType": "uint256",
          "name": "value",
          "type": "uint256"
        }
      ],
      "name": "transfer",
      "outputs": [
        {
          "internalType": "bool",
          "name": "",
          "type": "bool"
        }
      ],
      "stateMutability": "nonpayable",
      "type": "function"
    },
    {
      "inputs": [
        {
          "internalType": "address",
          "name": "from",
          "type": "address"
        },
        {
          "internalType": "address",
          "name": "to",
          "type": "address"
        },
        {
          "internalType": "uint256",
          "name": "value",
          "type": "uint256"
        }
      ],
      "name": "transferFrom",
      "outputs": [
        {
          "internalType": "bool",
          "name": "",
          "type": "bool"
        }
      ],
      "stateMutability": "nonpayable",
      "type": "function"
    },
    {
      "inputs": [
        {
          "internalType": "address",
          "name": "newOwner",
          "type": "address"
        }
      ],
      "name": "transferOwnership",
      "outputs": [],
      "stateMutability": "nonpayable",
      "type": "function"
    }
  ],
  "bytecode": "0x608060405234801561000f575f5ffd5b50604051610f1b380380610f1b83398101604081905261002e91610310565b338484600361003d8382610417565b50600461004a8282610417565b5050506001600160a01b03811661007b57604051631e4fbdf760e01b81525f60048201526024015b60405180910390fd5b610084816100c4565b506005805460ff60a01b1916600160a01b60ff8516021790556100bb336100ac84600a6105ca565b6100b690846105df565b610115565b50505050610609565b600580546001600160a01b038381166001600160a01b0319831681179093556040519116919082907f8be0079c531659141344cd1fd0a4f28419497f9722a3daafe3b4186f6b6457e0905f90a35050565b6001600160a01b03821661013e5760405163ec442f0560e01b81525f6004820152602401610072565b6101495f838361014d565b5050565b6001600160a01b038316610177578060025f82825461016c91906105f6565b909155506101e79050565b6001600160a01b0383165f90815260208190526040902054818110156101c95760405163391434e360e21b81526001600160a01b03851660048201526024810182905260448101839052606401610072565b6001600160a01b0384165f9081526020819052604090209082900390555b6001600160a01b03821661020357600280548290039055610221565b6001600160a01b0382165f9081526020819052604090208054820190555b816001600160a01b0316836001600160a01b03167fddf252ad1be2c89b69c2b068fc378daa952ba7f163c4a11628f55a4df523b3ef8360405161026691815260200190565b60405180910390a3505050565b634e487b7160e01b5f52604160045260245ffd5b5f82601f830112610296575f5ffd5b81516001600160401b038111156102af576102af610273565b604051601f8201601f19908116603f011681016001600160401b03811182821017156102dd576102dd610273565b6040528181528382016020018510156102f4575f5ffd5b8160208501602083015e5f918101602001919091529392505050565b5f5f5f5f60808587031215610323575f5ffd5b84516001600160401b03811115610338575f5ffd5b61034487828801610287565b602087015190955090506001600160401b03811115610361575f5ffd5b61036d87828801610287565b935050604085015160ff81168114610383575f5ffd5b6060959095015193969295505050565b600181811c908216806103a757607f821691505b6020821081036103c557634e487b7160e01b5f52602260045260245ffd5b50919050565b601f82111561041257805f5260205f20601f840160051c810160208510156103f05750805b601f840160051c820191505b8181101561040f575f81556001016103fc565b50505b505050565b81516001600160401b0381111561043057610430610273565b6104448161043e8454610393565b846103cb565b6020601f821160018114610476575f831561045f5750848201515b5f19600385901b1c1916600184901b17845561040f565b5f84815260208120601f198516915b828110156104a55787850151825560209485019460019092019101610485565b50848210156104c257868401515f19600387901b60f8161c191681555b50505050600190811b01905550565b634e487b7160e01b5f52601160045260245ffd5b6001815b600184111561052057808504811115610504576105046104d1565b600184161561051257908102905b60019390931c9280026104e9565b935093915050565b5f82610536575060016105c4565b8161054257505f6105c4565b816001811461055857600281146105625761057e565b60019150506105c4565b60ff841115610573576105736104d1565b50506001821b6105c4565b5060208310610133831016604e8410600b84101617156105a1575081810a6105c4565b6105ad5f1984846104e5565b805f19048211156105c0576105c06104d1565b0290505b92915050565b5f6105d860ff841683610528565b9392505050565b80820281158282048414176105c4576105c46104d1565b808201808211156105c4576105c46104d1565b610905806106165f395ff3fe608060405234801561000f575f5ffd5b50600436106100e5575f3560e01c8063715018a6116100885780639dc29fac116100635780639dc29fac146101d6578063a9059cbb146101e9578063dd62ed3e146101fc578063f2fde38b14610234575f5ffd5b8063715018a6146101ab5780638da5cb5b146101b357806395d89b41146101ce575f5ffd5b806323b872dd116100c357806323b872dd1461013c578063313ce5671461014f57806340c10f191461016e57806370a0823114610183575f5ffd5b806306fdde03146100e9578063095ea7b31461010757806318160ddd1461012a575b5f5ffd5b6100f1610247565b6040516100fe9190610775565b60405180910390f35b61011a6101153660046107c5565b6102d7565b60405190151581526020016100fe565b6002545b6040519081526020016100fe565b61011a61014a3660046107ed565b6102f0565b600554600160a01b900460ff1660405160ff90911681526020016100fe565b61018161017c3660046107c5565b610313565b005b61012e610191366004610827565b6001600160a01b03165f9081526020819052604090205490565b610181610329565b6005546040516001600160a01b0390911681526020016100fe565b6100f161033c565b6101816101e43660046107c5565b61034b565b61011a6101f73660046107c5565b61035d565b61012e61020a366004610847565b6001600160a01b039182165f90815260016020908152604080832093909416825291909152205490565b610181610242366004610827565b61036a565b60606003805461025690610878565b80601f016020809104026020016040519081016040528092919081815260200182805461028290610878565b80156102cd5780601f106102a4576101008083540402835291602001916102cd565b820191905f5260205f20905b8154815290600101906020018083116102b057829003601f168201915b5050505050905090565b5f336102e48185856103ac565b60019150505b92915050565b5f336102fd8582856103be565b61030885858561043a565b506001949350505050565b61031b610497565b61032582826104c4565b5050565b610331610497565b61033a5f6104f8565b565b60606004805461025690610878565b610353610497565b6103258282610549565b5f336102e481858561043a565b610372610497565b6001600160a01b0381166103a057604051631e4fbdf760e01b81525f60048201526024015b60405180910390fd5b6103a9816104f8565b50565b6103b9838383600161057d565b505050565b6001600160a01b038381165f908152600160209081526040808320938616835292905220545f19811015610434578181101561042657604051637dc7a0d960e11b81526001600160a01b03841660048201526024810182905260448101839052606401610397565b61043484848484035f61057d565b50505050565b6001600160a01b03831661046357604051634b637e8f60e11b81525f6004820152602401610397565b6001600160a01b03821661048c5760405163ec442f0560e01b81525f6004820152602401610397565b6103b983838361064f565b6005546001600160a01b0316331461033a5760405163118cdaa760e01b8152336004820152602401610397565b6001600160a01b0382166104ed5760405163ec442f0560e01b81525f6004820152602401610397565b6103255f838361064f565b600580546001600160a01b038381166001600160a01b0319831681179093556040519116919082907f8be0079c531659141344cd1fd0a4f28419497f9722a3daafe3b4186f6b6457e0905f90a35050565b6001600160a01b03821661057257604051634b637e8f60e11b81525f6004820152602401610397565b610325825f8361064f565b6001600160a01b0384166105a65760405163e602df0560e01b81525f6004820152602401610397565b6001600160a01b0383166105cf57604051634a1406b160e11b81525f6004820152602401610397565b6001600160a01b038085165f908152600160209081526040808320938716835292905220829055801561043457826001600160a01b0316846001600160a01b03167f8c5be1e5ebec7d5bd14f71427d1e84f3dd0314c0f7b2291e5b200ac8c7c3b9258460405161064191815260200190565b60405180910390a350505050565b6001600160a01b038316610679578060025f82825461066e91906108b0565b909155506106e99050565b6001600160a01b0383165f90815260208190526040902054818110156106cb5760405163391434e360e21b81526001600160a01b03851660048201526024810182905260448101839052606401610397565b6001600160a01b0384165f9081526020819052604090209082900390555b6001600160a01b03821661070557600280548290039055610723565b6001600160a01b0382165f9081526020819052604090208054820190555b816001600160a01b0316836001600160a01b03167fddf252ad1be2c89b69c2b068fc378daa952ba7f163c4a11628f55a4df523b3ef8360405161076891815260200190565b60405180910390a3505050565b602081525f82518060208401528060208501604085015e5f604082850101526040601f19601f83011684010191505092915050565b80356001600160a01b03811681146107c0575f5ffd5b919050565b5f5f604083850312156107d6575f5ffd5b6107df836107aa565b946020939093013593505050565b5f5f5f606084860312156107ff575f5ffd5b610808846107aa565b9250610816602085016107aa565b929592945050506040919091013590565b5f60208284031215610837575f5ffd5b610840826107aa565b9392505050565b5f5f60408385031215610858575f5ffd5b610861836107aa565b915061086f602084016107aa565b90509250929050565b600181811c9082168061088c57607f821691505b6020821081036108aa57634e487b7160e01b5f52602260045260245ffd5b50919050565b808201808211156102ea57634e487b7160e01b5f52601160045260245ffdfea2646970667358221220c2541c06efde7e24166d0ad070dfab0eb0e3fa4dfa54fd2c721ffb8b8e51be7564736f6c634300081c0033",
  "linkReferences": {},
  "deployedLinkReferences": {},
  "immutableReferences": {},
  "inputSourceName": "project/contracts/StockToken.sol",
  "buildInfoId": "solc-0_8_28-d8aa77380397969a096cc03bda40cfc22f0c8d0b"
}