{
  "_format": "hh3-artifact-1",
  "contractName": "Denom",
  "sourceName": "contracts/Denom.sol",
  "abi": [
    {
      "inputs": [
        {
          "internalType": "address",
          "name": "_nusdToken",
          "type": "address"
        },
        {
          "internalType": "address",
          "name": "_priceOracle",
          "type": "address"
        }
      ],
      "stateMutability": "nonpayable",
      "type": "constructor"
    },
    {
      "inputs": [
        {
          "internalType": "address",
          "name": "owner",
          "type": "address"
        }
      ],
      "name": "OwnableInvalidOwner",
      "type": "error"
    },
    {
      "inputs": [
        {
          "internalType": "address",
          "name": "account",
          "type": "address"
        }
      ],
      "name": "OwnableUnauthorizedAccount",
      "type": "error"
    },
    {
      "inputs": [],
      "name": "ReentrancyGuardReentrantCall",
      "type": "error"
    },
    {
      "inputs": [
        {
          "internalType": "address",
          "name": "token",
          "type": "address"
        }
      ],
      "name": "SafeERC20FailedOperation",
      "type": "error"
    },
    {
      "anonymous": false,
      "inputs": [
        {
          "indexed": true,
          "internalType": "address",
          "name": "user",
          "type": "address"
        },
        {
          "indexed": true,
          "internalType": "address",
          "name": "token",
          "type": "address"
        },
        {
          "indexed": false,
          "internalType": "uint256",
          "name": "amount",
          "type": "uint256"
        }
      ],
      "name": "Deposit",
      "type": "event"
    },
    {
      "anonymous": false,
      "inputs": [
        {
          "indexed": true,
          "internalType": "address",
          "name": "user",
          "type": "address"
        },
        {
          "indexed": true,
          "internalType": "address",
          "name": "liquidator",
          "type": "address"
        },
        {
          "indexed": false,
          "internalType": "uint256",
          "name": "debtAmount",
          "type": "uint256"
        }
      ],
      "name": "Liquidation",
      "type": "event"
    },
    {
      "anonymous": false,
      "inputs": [
        {
          "indexed": true,
          "internalType": "address",
          "name": "user",
          "type": "address"
        },
        {
          "indexed": false,
          "internalType": "uint256",
          "name": "amount",
          "type": "uint256"
        }
      ],
      "name": "Mint",
      "type": "event"
    },
    {
      "anonymous": false,
      "inputs": [
        {
          "indexed": true,
          "internalType": "address",
          "name": "previousOwner",
          "type": "address"
        },
        {
          "indexed": true,
          "internalType": "address",
          "name": "newOwner",
          "type": "address"
        }
      ],
      "name": "OwnershipTransferred",
      "type": "event"
    },
    {
      "anonymous": false,
      "inputs": [
        {
          "indexed": true,
          "internalType": "uint256",
          "name": "poolId",
          "type": "uint256"
        },
        {
          "indexed": true,
          "internalType": "address",
          "name": "token",
          "type": "address"
        }
      ],
      "name": "PoolCreated",
      "type": "event"
    },
    {
      "anonymous": false,
      "inputs": [
        {
          "indexed": true,
          "internalType": "address",
          "name": "user",
          "type": "address"
        },
        {
          "indexed": true,
          "internalType": "uint256",
          "name": "poolId",
          "type": "uint256"
        },
        {
          "indexed": false,
          "internalType": "uint256",
          "name": "amount",
          "type": "uint256"
        }
      ],
      "name": "PoolDeposit",
      "type": "event"
    },
    {
      "anonymous": false,
      "inputs": [
        {
          "indexed": true,
          "internalType": "address",
          "name": "user",
          "type": "address"
        },
        {
          "indexed": true,
          "internalType": "uint256",
          "name": "poolId",
          "type": "uint256"
        },
        {
          "indexed": false,
          "internalType": "uint256",
          "name": "amount",
          "type": "uint256"
        }
      ],
      "name": "PoolWithdraw",
      "type": "event"
    },
    {
      "anonymous": false,
      "inputs": [
        {
          "indexed": true,
          "internalType": "address",
          "name": "user",
          "type": "address"
        },
        {
          "indexed": false,
          "internalType": "uint256",
          "name": "amount",
          "type": "uint256"
        }
      ],
      "name": "Repay",
      "type": "event"
    },
    {
      "anonymous": false,
      "inputs": [
        {
          "indexed": true,
          "internalType": "address",
          "name": "user",
          "type": "address"
        },
        {
          "indexed": true,
          "internalType": "address",
          "name": "token",
          "type": "address"
        },
        {
          "indexed": false,
          "internalType": "uint256",
          "name": "amount",
          "type": "uint256"
        }
      ],
      "name": "Withdraw",
      "type": "event"
    },
    {
      "inputs": [],
      "name": "LIQUIDATION_PENALTY",
      "outputs": [
        {
          "internalType": "uint256",
          "name": "",
          "type": "uint256"
        }
      ],
      "stateMutability": "view",
      "type": "function"
    },
    {
      "inputs": [],
      "name": "LIQUIDATION_THRESHOLD",
      "outputs": [
        {
          "internalType": "uint256",
          "name": "",
          "type": "uint256"
        }
      ],
      "stateMutability": "view",
      "type": "function"
    },
    {
      "inputs": [],
      "name": "MIN_HEALTH_FACTOR",
      "outputs": [
        {
          "internalType": "uint256",
          "name": "",
          "type": "uint256"
        }
      ],
      "stateMutability": "view",
      "type": "function"
    },
    {
      "inputs": [],
      "name": "PERCENTAGE_PRECISION",
      "outputs": [
        {
          "internalType": "uint256",
          "name": "",
          "type": "uint256"
        }
      ],
      "stateMutability": "view",
      "type": "function"
    },
    {
      "inputs": [],
      "name": "PRICE_PRECISION",
      "outputs": [
        {
          "internalType": "uint256",
          "name": "",
          "type": "uint256"
        }
      ],
      "stateMutability": "view",
      "type": "function"
    },
    {
      "inputs": [
        {
          "internalType": "address",
          "name": "token",
          "type": "address"
        }
      ],
      "name": "addSupportedToken",
      "outputs": [],
      "stateMutability": "nonpayable",
      "type": "function"
    },
    {
      "inputs": [
        {
          "internalType": "address",
          "name": "user",
          "type": "address"
        }
      ],
      "name": "claimRemainingAssets",
      "outputs": [],
      "stateMutability": "nonpayable",
      "type": "function"
    },
    {
      "inputs": [
        {
          "internalType": "address",
          "name": "token",
          "type": "address"
        }
      ],
      "name": "createPool",
      "outputs": [
        {
          "internalType": "uint256",
          "name": "poolId",
          "type": "uint256"
        }
      ],
      "stateMutability": "nonpayable",
      "type": "function"
    },
    {
      "inputs": [
        {
          "internalType": "address",
          "name": "token",
          "type": "address"
        },
        {
          "internalType": "uint256",
          "name": "amount",
          "type": "uint256"
        }
      ],
      "name": "deposit",
      "outputs": [],
      "stateMutability": "nonpayable",
      "type": "function"
    },
    {
      "inputs": [
        {
          "internalType": "uint256",
          "name": "poolId",
          "type": "uint256"
        },
        {
          "internalType": "uint256",
          "name": "amount",
          "type": "uint256"
        }
      ],
      "name": "depositToPool",
      "outputs": [],
      "stateMutability": "nonpayable",
      "type": "function"
    },
    {
      "inputs": [
        {
          "internalType": "address",
          "name": "user",
          "type": "address"
        }
      ],
      "name": "getHealthFactor",
      "outputs": [
        {
          "internalType": "uint256",
          "name": "",
          "type": "uint256"
        }
      ],
      "stateMutability": "view",
      "type": "function"
    },
    {
      "inputs": [
        {
          "internalType": "uint256",
          "name": "poolId",
          "type": "uint256"
        }
      ],
      "name": "getPoolInfo",
      "outputs": [
        {
          "internalType": "address",
          "name": "token",
          "type": "address"
        },
        {
          "internalType": "uint256",
          "name": "totalDeposits",
          "type": "uint256"
        },
        {
          "internalType": "uint256",
          "name": "totalShares",
          "type": "uint256"
        },
        {
          "internalType": "uint256",
          "name": "userShares",
          "type": "uint256"
        },
        {
          "internalType": "uint256",
          "name": "rewardRate",
          "type": "uint256"
        },
        {
          "internalType": "bool",
          "name": "active",
          "type": "bool"
        }
      ],
      "stateMutability": "view",
      "type": "function"
    },
    {
      "inputs": [
        {
          "internalType": "address",
          "name": "user",
          "type": "address"
        }
      ],
      "name": "getPosition",
      "outputs": [
        {
          "internalType": "address[]",
          "name": "tokens",
          "type": "address[]"
        },
        {
          "internalType": "uint256[]",
          "name": "amounts",
          "type": "uint256[]"
        },
        {
          "internalType": "uint256",
          "name": "nusdDebt",
          "type": "uint256"
        },
        {
          "internalType": "uint256",
          "name": "healthFactor",
          "type": "uint256"
        }
      ],
      "stateMutability": "view",
      "type": "function"
    },
    {
      "inputs": [],
      "name": "getProtocolStats",
      "outputs": [
        {
          "internalType": "uint256",
          "name": "insurancePoolBalance",
          "type": "uint256"
        },
        {
          "internalType": "uint256",
          "name": "treasuryBalance",
          "type": "uint256"
        },
        {
          "internalType": "uint256",
          "name": "totalCollateralValue",
          "type": "uint256"
        },
        {
          "internalType": "uint256",
          "name": "nusdSupply",
          "type": "uint256"
        }
      ],
      "stateMutability": "view",
      "type": "function"
    },
    {
      "inputs": [],
      "name": "getSupportedTokens",
      "outputs": [
        {
          "internalType": "address[]",
          "name": "",
          "type": "address[]"
        }
      ],
      "stateMutability": "view",
      "type": "function"
    },
    {
      "inputs": [],
      "name": "getSystemStatus",
      "outputs": [
        {
          "internalType": "bool",
          "name": "systemActive",
          "type": "bool"
        },
        {
          "internalType": "bool",
          "name": "pegStable",
          "type": "bool"
        },
        {
          "internalType": "bool",
          "name": "liquidationActive",
          "type": "bool"
        }
      ],
      "stateMutability": "view",
      "type": "function"
    },
    {
      "inputs": [
        {
          "internalType": "address",
          "name": "user",
          "type": "address"
        }
      ],
      "name": "getTotalCollateralValue",
      "outputs": [
        {
          "internalType": "uint256",
          "name": "totalValue",
          "type": "uint256"
        }
      ],
      "stateMutability": "view",
      "type": "function"
    },
    {
      "inputs": [],
      "name": "getUserCount",
      "outputs": [
        {
          "internalType": "uint256",
          "name": "",
          "type": "uint256"
        }
      ],
      "stateMutability": "view",
      "type": "function"
    },
    {
      "inputs": [],
      "name": "insurancePool",
      "outputs": [
        {
          "internalType": "uint256",
          "name": "",
          "type": "uint256"
        }
      ],
      "stateMutability": "view",
      "type": "function"
    },
    {
      "inputs": [
        {
          "internalType": "address",
          "name": "user",
          "type": "address"
        }
      ],
      "name": "liquidate",
      "outputs": [],
      "stateMutability": "nonpayable",
      "type": "function"
    },
    {
      "inputs": [
        {
          "internalType": "uint256",
          "name": "amount",
          "type": "uint256"
        }
      ],
      "name": "mint",
      "outputs": [],
      "stateMutability": "nonpayable",
      "type": "function"
    },
    {
      "inputs": [],
      "name": "nusdToken",
      "outputs": [
        {
          "internalType": "contract NUSD",
          "name": "",
          "type": "address"
        }
      ],
      "stateMutability": "view",
      "type": "function"
    },
    {
      "inputs": [],
      "name": "owner",
      "outputs": [
        {
          "internalType": "address",
          "name": "",
          "type": "address"
        }
      ],
      "stateMutability": "view",
      "type": "function"
    },
    {
      "inputs": [],
      "name": "poolCount",
      "outputs": [
        {
          "internalType": "uint256",
          "name": "",
          "type": "uint256"
        }
      ],
      "stateMutability": "view",
      "type": "function"
    },
    {
      "inputs": [
        {
          "internalType": "uint256",
          "name": "",
          "type": "uint256"
        }
      ],
      "name": "pools",
      "outputs": [
        {
          "internalType": "address",
          "name": "token",
          "type": "address"
        },
        {
          "internalType": "uint256",
          "name": "totalDeposits",
          "type": "uint256"
        },
        {
          "internalType": "uint256",
          "name": "totalShares",
          "type": "uint256"
        },
        {
          "internalType": "uint256",
          "name": "rewardRate",
          "type": "uint256"
        },
        {
          "internalType": "bool",
          "name": "active",
          "type": "bool"
        }
      ],
      "stateMutability": "view",
      "type": "function"
    },
    {
      "inputs": [
        {
          "internalType": "address",
          "name": "",
          "type": "address"
        }
      ],
      "name": "positions",
      "outputs": [
        {
          "internalType": "uint256",
          "name": "nusdDebt",
          "type": "uint256"
        },
        {
          "internalType": "bool",
          "name": "exists",
          "type": "bool"
        }
      ],
      "stateMutability": "view",
      "type": "function"
    },
    {
      "inputs": [],
      "name": "priceOracle",
      "outputs": [
        {
          "internalType": "contract IPriceOracle",
          "name": "",
          "type": "address"
        }
      ],
      "stateMutability": "view",
      "type": "function"
    },
    {
      "inputs": [
        {
          "internalType": "address",
          "name": "token",
          "type": "address"
        }
      ],
      "name": "removeSupportedToken",
      "outputs": [],
      "stateMutability": "nonpayable",
      "type": "function"
    },
    {
      "inputs": [],
      "name": "renounceOwnership",
      "outputs": [],
      "stateMutability": "nonpayable",
      "type": "function"
    },
    {
      "inputs": [
        {
          "internalType": "uint256",
          "name": "amount",
          "type": "uint256"
        }
      ],
      "name": "repay",
      "outputs": [],
      "stateMutability": "nonpayable",
      "type": "function"
    },
    {
      "inputs": [
        {
          "internalType": "address",
          "name": "",
          "type": "address"
        }
      ],
      "name": "supportedTokens",
      "outputs": [
        {
          "internalType": "bool",
          "name": "",
          "type": "bool"
        }
      ],
      "stateMutability": "view",
      "type": "function"
    },
    {
      "inputs": [
        {
          "internalType": "uint256",
          "name": "",
          "type": "uint256"
        }
      ],
      "name": "tokenList",
      "outputs": [
        {
          "internalType": "address",
          "name": "",
          "type": "address"
        }
      ],
      "stateMutability": "view",
      "type": "function"
    },
    {
      "inputs": [
        {
          "internalType": "address",
          "name": "newOwner",
          "type": "address"
        }
      ],
      "name": "transferOwnership",
      "outputs": [],
      "stateMutability": "nonpayable",
      "type": "function"
    },
    {
      "inputs": [],
      "name": "treasury",
      "outputs": [
        {
          "internalType": "uint256",
          "name": "",
          "type": "uint256"
        }
      ],
      "stateMutability": "view",
      "type": "function"
    },
    {
      "inputs": [
        {
          "internalType": "uint256",
          "name": "",
          "type": "uint256"
        }
      ],
      "name": "users",
      "outputs": [
        {
          "internalType": "address",
          "name": "",
          "type": "address"
        }
      ],
      "stateMutability": "view",
      "type": "function"
    },
    {
      "inputs": [
        {
          "internalType": "address",
          "name": "token",
          "type": "address"
        },
        {
          "internalType": "uint256",
          "name": "amount",
          "type": "uint256"
        }
      ],
      "name": "withdraw",
      "outputs": [],
      "stateMutability": "nonpayable",
      "type": "function"
    },
    {
      "inputs": [
        {
          "internalType": "uint256",
          "name": "poolId",
          "type": "uint256"
        },
        {
          "internalType": "uint256",
          "name": "shares",
          "type": "uint256"
        }
      ],
      "name": "withdrawFromPool",
      "outputs": [],
      "stateMutability": "nonpayable",
      "type": "function"
    }
  ],
  "bytecode": "0x608060405234801561000f575f5ffd5b5060405161223038038061223083398101604081905261002e916100fc565b338061005357604051631e4fbdf760e01b81525f600482015260240160405180910390fd5b61005c81610092565b5060018055600280546001600160a01b039384166001600160a01b0319918216179091556003805492909316911617905561012d565b5f80546001600160a01b038381166001600160a01b0319831681178455604051919092169283917f8be0079c531659141344cd1fd0a4f28419497f9722a3daafe3b4186f6b6457e09190a35050565b80516001600160a01b03811681146100f7575f5ffd5b919050565b5f5f6040838503121561010d575f5ffd5b610116836100e1565b9150610124602084016100e1565b90509250929050565b6120f68061013a5f395ff3fe608060405234801561000f575f5ffd5b506004361061021e575f3560e01c80638da5cb5b1161012a578063b5627e42116100b4578063ef1b316611610079578063ef1b3166146105b6578063f2fde38b146105c9578063f3fef3a3146105dc578063f525cb68146105ef578063fe6bcd7c146105f8575f5ffd5b8063b5627e421461057e578063b5cb15f714610586578063d3c7c2c71461058e578063e256888f1461057e578063eb820551146105a3575f5ffd5b80639b8621d5116100fa5780639b8621d5146104ca5780639ead7222146104d2578063a0712d68146104e5578063ab2adc00146104f8578063ac4afa3814610501575f5ffd5b80638da5cb5b146104945780639049f9d2146104a457806390a8ae9b146104b757806395082d25146104bf575f5ffd5b806355f57510116101ab5780636d69fcaf1161017b5780636d69fcaf1461042b578063700904ea1461043e578063715018a6146104515780637631919014610459578063771aceef1461046c575f5ffd5b806355f575101461038e57806361d027b3146103cf57806368c4ac26146103e65780636c648fc414610418575f5ffd5b80632f865568116101f15780632f86556814610321578063365b98b214610336578063371fd8e61461034957806347e7ef241461035c57806350c1d19d1461036f575f5ffd5b806316c19739146102225780632630c12f1461024e5780632ae9af47146102795780632f380b351461028c575b5f5ffd5b610235610230366004611e0e565b61060b565b6040516102459493929190611e71565b60405180910390f35b600354610261906001600160a01b031681565b6040516001600160a01b039091168152602001610245565b600254610261906001600160a01b031681565b6102e861029a366004611ed3565b5f90815260086020908152604080832080546001820154600283015433875260038401909552929094205460048201546005909201546001600160a01b03909516959294909260ff90911690565b604080516001600160a01b03909716875260208701959095529385019290925260608401526080830152151560a082015260c001610245565b61033461032f366004611e0e565b6107f0565b005b610261610344366004611ed3565b610a2b565b610334610357366004611ed3565b610a53565b61033461036a366004611eea565b610bd1565b6040805160018082526020820181905291810191909152606001610245565b6103ba61039c366004611e0e565b60046020525f90815260409020600181015460029091015460ff1682565b60408051928352901515602083015201610245565b6103d8600b5481565b604051908152602001610245565b6104086103f4366004611e0e565b60066020525f908152604090205460ff1681565b6040519015158152602001610245565b6103d8610426366004611e0e565b610d43565b610334610439366004611e0e565b610e42565b61033461044c366004611e0e565b610f17565b6103346110ae565b610334610467366004611e0e565b6110c1565b610474611213565b604080519485526020850193909352918301526060820152608001610245565b5f546001600160a01b0316610261565b6103d86104b2366004611e0e565b6112e7565b6103d8609681565b6103d86305f5e10081565b6103d8600a81565b6102616104e0366004611ed3565b611377565b6103346104f3366004611ed3565b611386565b6103d8600a5481565b61054a61050f366004611ed3565b60086020525f9081526040902080546001820154600283015460048401546005909401546001600160a01b0390931693919290919060ff1685565b604080516001600160a01b03909616865260208601949094529284019190915260608301521515608082015260a001610245565b6103d8606481565b6005546103d8565b6105966114f9565b6040516102459190611f12565b6103346105b1366004611f24565b611559565b6103346105c4366004611f24565b6116c6565b6103346105d7366004611e0e565b61189a565b6103346105ea366004611eea565b6118d4565b6103d860095481565b6103d8610606366004611e0e565b611ae4565b6001600160a01b0381165f908152600460205260408120600201546060918291819060ff16610658575050604080515f808252602082018181528284019093529093509091505f196107e9565b60075467ffffffffffffffff81111561067357610673611f44565b60405190808252806020026020018201604052801561069c578160200160208202803683370190505b5060075490945067ffffffffffffffff8111156106bb576106bb611f44565b6040519080825280602002602001820160405280156106e4578160200160208202803683370190505b5092505f5b6007548110156107bf576007818154811061070657610706611f58565b905f5260205f20015f9054906101000a90046001600160a01b031685828151811061073357610733611f58565b6001600160a01b039283166020918202929092018101919091529087165f908152600490915260408120600780549192918490811061077457610774611f58565b5f9182526020808320909101546001600160a01b0316835282019290925260400190205484518590839081106107ac576107ac611f58565b60209081029190910101526001016106e9565b506001600160a01b0385165f9081526004602052604090206001015491506107e685611ae4565b90505b9193509193565b6107f8611b8a565b6001600160a01b0381165f90815260046020526040902060020154819060ff1661083d5760405162461bcd60e51b815260040161083490611f6c565b60405180910390fd5b5f61084783611ae4565b90506096811061088f5760405162461bcd60e51b8152602060048201526013602482015272506f736974696f6e206973206865616c74687960681b6044820152606401610834565b6001600160a01b0383165f90815260046020526040902060010154806108ee5760405162461bcd60e51b81526020600482015260146024820152734e6f206465627420746f206c697175696461746560601b6044820152606401610834565b5f60646108fc600a84611fb7565b6109069190611fd4565b6002549091506001600160a01b0316639dc29fac336109258486611ff3565b6040516001600160e01b031960e085901b1681526001600160a01b03909216600483015260248201526044015f604051808303815f87803b158015610968575f5ffd5b505af115801561097a573d5f5f3e3d5ffd5b505050505f61098886610d43565b905061099386611bb4565b6001600160a01b0386165f9081526004602052604081206001015560646109bb82600a611fb7565b6109c59190611fd4565b600a5f8282546109d59190611ff3565b909155505060405183815233906001600160a01b038816907fb6ed19cdf32fe732da504f7525ffbec01e43cf56a407bdcda3ab1120d756a2599060200160405180910390a35050505050610a2860018055565b50565b60058181548110610a3a575f80fd5b5f918252602090912001546001600160a01b0316905081565b610a5b611b8a565b335f8181526004602052604090206002015460ff16610a8c5760405162461bcd60e51b815260040161083490611f6c565b5f8211610aab5760405162461bcd60e51b815260040161083490612006565b335f90815260046020526040902060010154821115610b0c5760405162461bcd60e51b815260206004820152601960248201527f526570617920616d6f756e7420657863656564732064656274000000000000006044820152606401610834565b600254604051632770a7eb60e21b8152336004820152602481018490526001600160a01b0390911690639dc29fac906044015f604051808303815f87803b158015610b55575f5ffd5b505af1158015610b67573d5f5f3e3d5ffd5b5050335f9081526004602052604081206001018054869450909250610b8d90849061203d565b909155505060405182815233907f5c16de4f8b59bd9caf0f49a545f25819a895ed223294290b408242e72a5942319060200160405180910390a250610a2860018055565b610bd9611b8a565b6001600160a01b0382165f90815260066020526040902054829060ff16610c125760405162461bcd60e51b815260040161083490612050565b5f8211610c315760405162461bcd60e51b815260040161083490612006565b610c466001600160a01b038416333085611c6e565b335f9081526004602052604090206002015460ff16610cbe57335f818152600460205260408120600201805460ff191660019081179091556005805491820181559091527f036b6384b5eca791c62761152d0c79bb0604c104a5fb6f4eb0703f3154bb3db00180546001600160a01b03191690911790555b335f9081526004602090815260408083206001600160a01b038716845290915281208054849290610cf0908490611ff3565b90915550506040518281526001600160a01b0384169033907f5548c837ab068cf56a2c2479df0882a4922fd203edb7517321831d95078c5f629060200160405180910390a350610d3f60018055565b5050565b5f805b600754811015610e3c575f60078281548110610d6457610d64611f58565b5f9182526020808320909101546001600160a01b038781168452600483526040808520919092168085529252909120549091508015610e32576003546040516341976e0960e01b81526001600160a01b0384811660048301525f9216906341976e0990602401602060405180830381865afa158015610de5573d5f5f3e3d5ffd5b505050506040513d601f19601f82011682018060405250810190610e09919061207d565b90506305f5e100610e1a8284611fb7565b610e249190611fd4565b610e2e9086611ff3565b9450505b5050600101610d46565b50919050565b610e4a611cdb565b6001600160a01b0381165f9081526006602052604090205460ff1615610eb25760405162461bcd60e51b815260206004820152601760248201527f546f6b656e20616c726561647920737570706f727465640000000000000000006044820152606401610834565b6001600160a01b03165f818152600660205260408120805460ff191660019081179091556007805491820181559091527fa66cc928b5edb82af9bd49922954155ab7b0942694bea4ce44661d9a8736c6880180546001600160a01b0319169091179055565b6001600160a01b0381165f90815260046020526040902060020154819060ff16610f535760405162461bcd60e51b815260040161083490611f6c565b336001600160a01b03831614610fab5760405162461bcd60e51b815260206004820181905260248201527f4f6e6c7920757365722063616e20636c61696d207468656972206173736574736044820152606401610834565b6001600160a01b0382165f90815260046020526040902060010154156110135760405162461bcd60e51b815260206004820152601960248201527f4d75737420726570617920616c6c2064656274206669727374000000000000006044820152606401610834565b5f5b6007548110156110a9575f6007828154811061103357611033611f58565b5f9182526020808320909101546001600160a01b03878116845260048352604080852091909216808552925290912054909150801561109f576001600160a01b038086165f9081526004602090815260408083209386168084529390915281205561109f908683611d07565b5050600101611015565b505050565b6110b6611cdb565b6110bf5f611d38565b565b6110c9611cdb565b6001600160a01b0381165f9081526006602052604090205460ff166111005760405162461bcd60e51b815260040161083490612050565b6001600160a01b0381165f908152600660205260408120805460ff191690555b600754811015610d3f57816001600160a01b03166007828154811061114757611147611f58565b5f918252602090912001546001600160a01b03160361120b57600780546111709060019061203d565b8154811061118057611180611f58565b5f91825260209091200154600780546001600160a01b0390921691839081106111ab576111ab611f58565b905f5260205f20015f6101000a8154816001600160a01b0302191690836001600160a01b0316021790555060078054806111e7576111e7612094565b5f8281526020902081015f1990810180546001600160a01b03191690550190555050565b600101611120565b600a54600b545f80805b60055481101561126a576112566005828154811061123d5761123d611f58565b5f918252602090912001546001600160a01b0316610d43565b6112609084611ff3565b925060010161121d565b5060025f9054906101000a90046001600160a01b03166001600160a01b03166318160ddd6040518163ffffffff1660e01b8152600401602060405180830381865afa1580156112bb573d5f5f3e3d5ffd5b505050506040513d601f19601f820116820180604052508101906112df919061207d565b905090919293565b5f6112f0611cdb565b60098054905f6112ff836120a8565b909155505f8181526008602052604080822080546001600160a01b0319166001600160a01b038716908117825560058201805460ff191660011790556101f460049092019190915590519293509183917f65fc0eb45954044fb55e1b01344d5d72fbfdf88e732d955f73bb7fb2bcc131e991a3919050565b60078181548110610a3a575f80fd5b61138e611b8a565b335f8181526004602052604090206002015460ff166113bf5760405162461bcd60e51b815260040161083490611f6c565b5f82116113de5760405162461bcd60e51b815260040161083490612006565b335f90815260046020526040812060010180548492906113ff908490611ff3565b909155505f905061140f33611ae4565b9050606481101561145a5760405162461bcd60e51b81526020600482015260156024820152744865616c746820666163746f7220746f6f206c6f7760581b6044820152606401610834565b6002546040516340c10f1960e01b8152336004820152602481018590526001600160a01b03909116906340c10f19906044015f604051808303815f87803b1580156114a3575f5ffd5b505af11580156114b5573d5f5f3e3d5ffd5b50506040518581523392507f0f6798a560793a54c3bcfe86a93cde1e73087d944c0ea20544137d4121396885915060200160405180910390a25050610a2860018055565b6060600780548060200260200160405190810160405280929190818152602001828054801561154f57602002820191905f5260205f20905b81546001600160a01b03168152600190910190602001808311611531575b5050505050905090565b611561611b8a565b5f8281526008602052604090206005015460ff166115b35760405162461bcd60e51b815260206004820152600f60248201526e506f6f6c206e6f742061637469766560881b6044820152606401610834565b5f81116115d25760405162461bcd60e51b815260040161083490612006565b5f82815260086020526040902080546115f6906001600160a01b0316333085611c6e565b5f81600201545f0361160957508161162a565b6001820154600283015461161d9085611fb7565b6116279190611fd4565b90505b335f9081526003830160205260408120805483929061164a908490611ff3565b9250508190555080826002015f8282546116649190611ff3565b9250508190555082826001015f82825461167e9190611ff3565b9091555050604051838152849033907f7628d23baa7269cbe52d585c106809f6857f67de8489b61e6a5dc5a780748a38906020015b60405180910390a35050610d3f60018055565b6116ce611b8a565b5f8281526008602052604090206005015460ff166117205760405162461bcd60e51b815260206004820152600f60248201526e506f6f6c206e6f742061637469766560881b6044820152606401610834565b5f811161176f5760405162461bcd60e51b815260206004820152601d60248201527f536861726573206d7573742062652067726561746572207468616e20300000006044820152606401610834565b5f82815260086020908152604080832033845260038101909252909120548211156117d25760405162461bcd60e51b8152602060048201526013602482015272496e73756666696369656e742073686172657360681b6044820152606401610834565b5f81600201548260010154846117e89190611fb7565b6117f29190611fd4565b335f90815260038401602052604081208054929350859290919061181790849061203d565b9250508190555082826002015f828254611831919061203d565b9250508190555080826001015f82825461184b919061203d565b90915550508154611866906001600160a01b03163383611d07565b604051818152849033907fcbab895d7f104f6d1681ef2e6a580e5c082f1aa35a7d0c9d1be73d0018e05e88906020016116b3565b6118a2611cdb565b6001600160a01b0381166118cb57604051631e4fbdf760e01b81525f6004820152602401610834565b610a2881611d38565b6118dc611b8a565b6001600160a01b0382165f90815260066020526040902054829060ff166119155760405162461bcd60e51b815260040161083490612050565b335f8181526004602052604090206002015460ff166119465760405162461bcd60e51b815260040161083490611f6c565b5f83116119655760405162461bcd60e51b815260040161083490612006565b335f9081526004602090815260408083206001600160a01b03881684529091529020548311156119d75760405162461bcd60e51b815260206004820152601760248201527f496e73756666696369656e7420636f6c6c61746572616c0000000000000000006044820152606401610834565b335f9081526004602090815260408083206001600160a01b038816845290915281208054859290611a0990849061203d565b9091555050335f9081526004602052604090206001015415611a93575f611a2f33611ae4565b90506064811015611a915760405162461bcd60e51b815260206004820152602660248201527f4865616c746820666163746f7220746f6f206c6f772061667465722077697468604482015265191c985dd85b60d21b6064820152608401610834565b505b611aa76001600160a01b0385163385611d07565b6040518381526001600160a01b0385169033907f9b1bfa7fa9ee420a16e124f794c35ac9f90472acc99140eb2f6447c714cad8eb906020016116b3565b6001600160a01b0381165f9081526004602052604081206002015460ff161580611b2657506001600160a01b0382165f90815260046020526040902060010154155b15611b3357505f19919050565b5f611b3d83610d43565b6001600160a01b0384165f90815260046020526040812060010154919250819003611b6c57505f199392505050565b80611b78606484611fb7565b611b829190611fd4565b949350505050565b600260015403611bad57604051633ee5aeb560e01b815260040160405180910390fd5b6002600155565b5f5b600754811015610d3f575f60078281548110611bd457611bd4611f58565b5f9182526020808320909101546001600160a01b038681168452600483526040808520919092168085529252909120549091508015611c64575f6064611c1b83605a611fb7565b611c259190611fd4565b9050611c3b6001600160a01b0384163383611d07565b506001600160a01b038085165f9081526004602090815260408083209386168352929052908120555b5050600101611bb6565b6040516001600160a01b038481166024830152838116604483015260648201839052611cd59186918216906323b872dd906084015b604051602081830303815290604052915060e01b6020820180516001600160e01b038381831617835250505050611d87565b50505050565b5f546001600160a01b031633146110bf5760405163118cdaa760e01b8152336004820152602401610834565b6040516001600160a01b038381166024830152604482018390526110a991859182169063a9059cbb90606401611ca3565b5f80546001600160a01b038381166001600160a01b0319831681178455604051919092169283917f8be0079c531659141344cd1fd0a4f28419497f9722a3daafe3b4186f6b6457e09190a35050565b5f5f60205f8451602086015f885af180611da6576040513d5f823e3d81fd5b50505f513d91508115611dbd578060011415611dca565b6001600160a01b0384163b155b15611cd557604051635274afe760e01b81526001600160a01b0385166004820152602401610834565b80356001600160a01b0381168114611e09575f5ffd5b919050565b5f60208284031215611e1e575f5ffd5b611e2782611df3565b9392505050565b5f8151808452602084019350602083015f5b82811015611e675781516001600160a01b0316865260209586019590910190600101611e40565b5093949350505050565b608081525f611e836080830187611e2e565b82810360208401528086518083526020830191506020880192505f5b81811015611ebd578351835260209384019390920191600101611e9f565b5050604084019590955250506060015292915050565b5f60208284031215611ee3575f5ffd5b5035919050565b5f5f60408385031215611efb575f5ffd5b611f0483611df3565b946020939093013593505050565b602081525f611e276020830184611e2e565b5f5f60408385031215611f35575f5ffd5b50508035926020909101359150565b634e487b7160e01b5f52604160045260245ffd5b634e487b7160e01b5f52603260045260245ffd5b60208082526017908201527f506f736974696f6e20646f6573206e6f74206578697374000000000000000000604082015260600190565b634e487b7160e01b5f52601160045260245ffd5b8082028115828204841417611fce57611fce611fa3565b92915050565b5f82611fee57634e487b7160e01b5f52601260045260245ffd5b500490565b80820180821115611fce57611fce611fa3565b6020808252601d908201527f416d6f756e74206d7573742062652067726561746572207468616e2030000000604082015260600190565b81810381811115611fce57611fce611fa3565b602080825260139082015272151bdad95b881b9bdd081cdd5c1c1bdc9d1959606a1b604082015260600190565b5f6020828403121561208d575f5ffd5b5051919050565b634e487b7160e01b5f52603160045260245ffd5b5f600182016120b9576120b9611fa3565b506001019056fea264697066735822122037924cd1e56409e3659f93342d51ff69336478b5d1edca6232c4a461448c817f64736f6c634300081c0033",
  "linkReferences": {},
  "deployedLinkReferences": {},
  "immutableReferences": {},
  "inputSourceName": "project/contracts/Denom.sol",
  "buildInfoId": "solc-0_8_28-188565ec39a32d084a5b5dd8a9016a37d62c8b0a"
}