{
  "_format": "hh3-artifact-1",
  "contractName": "MockPriceOracle",
  "sourceName": "contracts/MockPriceOracle.sol",
  "abi": [
    {
      "inputs": [],
      "stateMutability": "nonpayable",
      "type": "constructor"
    },
    {
      "anonymous": false,
      "inputs": [
        {
          "indexed": true,
          "internalType": "address",
          "name": "token",
          "type": "address"
        },
        {
          "indexed": false,
          "internalType": "uint256",
          "name": "price",
          "type": "uint256"
        }
      ],
      "name": "PriceUpdated",
      "type": "event"
    },
    {
      "inputs": [
        {
          "internalType": "address",
          "name": "token",
          "type": "address"
        }
      ],
      "name": "getPrice",
      "outputs": [
        {
          "internalType": "uint256",
          "name": "price",
          "type": "uint256"
        }
      ],
      "stateMutability": "view",
      "type": "function"
    },
    {
      "inputs": [],
      "name": "owner",
      "outputs": [
        {
          "internalType": "address",
          "name": "",
          "type": "address"
        }
      ],
      "stateMutability": "view",
      "type": "function"
    },
    {
      "inputs": [
        {
          "internalType": "address",
          "name": "token",
          "type": "address"
        },
        {
          "internalType": "uint256",
          "name": "price",
          "type": "uint256"
        }
      ],
      "name": "setPrice",
      "outputs": [],
      "stateMutability": "nonpayable",
      "type": "function"
    }
  ],
  "bytecode": "0x6080604052348015600e575f5ffd5b50600180546001600160a01b0319163317905561025f8061002e5f395ff3fe608060405234801561000f575f5ffd5b506004361061003e575f3560e01c8062e4768b1461004257806341976e09146100575780638da5cb5b1461007d575b5f5ffd5b6100556100503660046101e1565b6100a8565b005b61006a610065366004610209565b610161565b6040519081526020015b60405180910390f35b600154610090906001600160a01b031681565b6040516001600160a01b039091168152602001610074565b6001546001600160a01b031633146101115760405162461bcd60e51b815260206004820152602160248201527f4f6e6c79206f776e65722063616e2063616c6c20746869732066756e6374696f6044820152603760f91b60648201526084015b60405180910390fd5b6001600160a01b0382165f818152602081815260409182902084905590518381527f0d86730737b142fc160892fa8a0f2db687a92a0e294d1ad70624cf5acef03b84910160405180910390a25050565b6001600160a01b0381165f90815260208190526040902054806101c65760405162461bcd60e51b815260206004820152601c60248201527f5072696365206e6f742073657420666f72207468697320746f6b656e000000006044820152606401610108565b919050565b80356001600160a01b03811681146101c6575f5ffd5b5f5f604083850312156101f2575f5ffd5b6101fb836101cb565b946020939093013593505050565b5f60208284031215610219575f5ffd5b610222826101cb565b939250505056fea2646970667358221220aee53b6fdecef305a5e10d1a30b65909d2cf54a85edef0793b59f0d0966d8d7e64736f6c634300081c0033",
  "linkReferences": {},
  "deployedLinkReferences": {},
  "immutableReferences": {},
  "inputSourceName": "project/contracts/MockPriceOracle.sol",
  "buildInfoId": "solc-0_8_28-8a8f60acff8cee09367bb0b27c2ca92f9afa8b83"
}